{
  "_format": "hh-sol-artifact-1",
  "contractName": "HeritTrust",
  "sourceName": "contracts/HeritTrust.sol",
  "abi": [
    {
      "inputs": [],
      "stateMutability": "nonpayable",
      "type": "constructor"
    },
    {
      "inputs": [],
      "name": "AccessControlBadConfirmation",
      "type": "error"
    },
    {
      "inputs": [
        {
          "internalType": "address",
          "name": "account",
          "type": "address"
        },
        {
          "internalType": "bytes32",
          "name": "neededRole",
          "type": "bytes32"
        }
      ],
      "name": "AccessControlUnauthorizedAccount",
      "type": "error"
    },
    {
      "inputs": [],
      "name": "ReentrancyGuardReentrantCall",
      "type": "error"
    },
    {
      "anonymous": false,
      "inputs": [
        {
          "indexed": true,
          "internalType": "uint256",
          "name": "projectId",
          "type": "uint256"
        },
        {
          "indexed": false,
          "internalType": "uint256",
          "name": "amount",
          "type": "uint256"
        }
      ],
      "name": "FundsLocked",
      "type": "event"
    },
    {
      "anonymous": false,
      "inputs": [
        {
          "indexed": true,
          "internalType": "uint256",
          "name": "projectId",
          "type": "uint256"
        },
        {
          "indexed": true,
          "internalType": "uint256",
          "name": "milestoneId",
          "type": "uint256"
        },
        {
          "indexed": false,
          "internalType": "uint256",
          "name": "amount",
          "type": "uint256"
        },
        {
          "indexed": true,
          "internalType": "address",
          "name": "contractor",
          "type": "address"
        }
      ],
      "name": "FundsReleased",
      "type": "event"
    },
    {
      "anonymous": false,
      "inputs": [
        {
          "indexed": true,
          "internalType": "uint256",
          "name": "projectId",
          "type": "uint256"
        },
        {
          "indexed": true,
          "internalType": "uint256",
          "name": "milestoneId",
          "type": "uint256"
        },
        {
          "indexed": true,
          "internalType": "address",
          "name": "approver",
          "type": "address"
        }
      ],
      "name": "MilestoneApproved",
      "type": "event"
    },
    {
      "anonymous": false,
      "inputs": [
        {
          "indexed": true,
          "internalType": "uint256",
          "name": "projectId",
          "type": "uint256"
        },
        {
          "indexed": false,
          "internalType": "uint256",
          "name": "milestoneId",
          "type": "uint256"
        },
        {
          "indexed": false,
          "internalType": "uint256",
          "name": "amount",
          "type": "uint256"
        }
      ],
      "name": "MilestoneDefined",
      "type": "event"
    },
    {
      "anonymous": false,
      "inputs": [
        {
          "indexed": true,
          "internalType": "uint256",
          "name": "projectId",
          "type": "uint256"
        },
        {
          "indexed": true,
          "internalType": "uint256",
          "name": "milestoneId",
          "type": "uint256"
        },
        {
          "indexed": false,
          "internalType": "string",
          "name": "proofHash",
          "type": "string"
        }
      ],
      "name": "MilestoneSubmitted",
      "type": "event"
    },
    {
      "anonymous": false,
      "inputs": [
        {
          "indexed": true,
          "internalType": "uint256",
          "name": "projectId",
          "type": "uint256"
        },
        {
          "indexed": true,
          "internalType": "uint256",
          "name": "milestoneId",
          "type": "uint256"
        },
        {
          "indexed": false,
          "internalType": "uint256",
          "name": "score",
          "type": "uint256"
        }
      ],
      "name": "MilestoneVerified",
      "type": "event"
    },
    {
      "anonymous": false,
      "inputs": [
        {
          "indexed": true,
          "internalType": "uint256",
          "name": "projectId",
          "type": "uint256"
        },
        {
          "indexed": false,
          "internalType": "string",
          "name": "name",
          "type": "string"
        },
        {
          "indexed": true,
          "internalType": "address",
          "name": "contractor",
          "type": "address"
        },
        {
          "indexed": false,
          "internalType": "uint256",
          "name": "totalBudget",
          "type": "uint256"
        }
      ],
      "name": "ProjectCreated",
      "type": "event"
    },
    {
      "anonymous": false,
      "inputs": [
        {
          "indexed": true,
          "internalType": "bytes32",
          "name": "role",
          "type": "bytes32"
        },
        {
          "indexed": true,
          "internalType": "bytes32",
          "name": "previousAdminRole",
          "type": "bytes32"
        },
        {
          "indexed": true,
          "internalType": "bytes32",
          "name": "newAdminRole",
          "type": "bytes32"
        }
      ],
      "name": "RoleAdminChanged",
      "type": "event"
    },
    {
      "anonymous": false,
      "inputs": [
        {
          "indexed": true,
          "internalType": "bytes32",
          "name": "role",
          "type": "bytes32"
        },
        {
          "indexed": true,
          "internalType": "address",
          "name": "account",
          "type": "address"
        },
        {
          "indexed": true,
          "internalType": "address",
          "name": "sender",
          "type": "address"
        }
      ],
      "name": "RoleGranted",
      "type": "event"
    },
    {
      "anonymous": false,
      "inputs": [
        {
          "indexed": true,
          "internalType": "bytes32",
          "name": "role",
          "type": "bytes32"
        },
        {
          "indexed": true,
          "internalType": "address",
          "name": "account",
          "type": "address"
        },
        {
          "indexed": true,
          "internalType": "address",
          "name": "sender",
          "type": "address"
        }
      ],
      "name": "RoleRevoked",
      "type": "event"
    },
    {
      "inputs": [],
      "name": "CONTRACTOR_ROLE",
      "outputs": [
        {
          "internalType": "bytes32",
          "name": "",
          "type": "bytes32"
        }
      ],
      "stateMutability": "view",
      "type": "function"
    },
    {
      "inputs": [],
      "name": "DEFAULT_ADMIN_ROLE",
      "outputs": [
        {
          "internalType": "bytes32",
          "name": "",
          "type": "bytes32"
        }
      ],
      "stateMutability": "view",
      "type": "function"
    },
    {
      "inputs": [],
      "name": "VERIFIER_ROLE",
      "outputs": [
        {
          "internalType": "bytes32",
          "name": "",
          "type": "bytes32"
        }
      ],
      "stateMutability": "view",
      "type": "function"
    },
    {
      "inputs": [
        {
          "internalType": "uint256",
          "name": "_projectId",
          "type": "uint256"
        },
        {
          "internalType": "string",
          "name": "_description",
          "type": "string"
        },
        {
          "internalType": "uint256",
          "name": "_amount",
          "type": "uint256"
        }
      ],
      "name": "addMilestone",
      "outputs": [],
      "stateMutability": "nonpayable",
      "type": "function"
    },
    {
      "inputs": [
        {
          "internalType": "uint256",
          "name": "_projectId",
          "type": "uint256"
        },
        {
          "internalType": "uint256",
          "name": "_milestoneId",
          "type": "uint256"
        }
      ],
      "name": "approveAndRelease",
      "outputs": [],
      "stateMutability": "nonpayable",
      "type": "function"
    },
    {
      "inputs": [
        {
          "internalType": "string",
          "name": "_name",
          "type": "string"
        },
        {
          "internalType": "string",
          "name": "_description",
          "type": "string"
        },
        {
          "internalType": "address",
          "name": "_contractor",
          "type": "address"
        },
        {
          "internalType": "uint256",
          "name": "_totalBudget",
          "type": "uint256"
        }
      ],
      "name": "createProject",
      "outputs": [],
      "stateMutability": "payable",
      "type": "function"
    },
    {
      "inputs": [
        {
          "internalType": "uint256",
          "name": "_projectId",
          "type": "uint256"
        },
        {
          "internalType": "uint256",
          "name": "_milestoneId",
          "type": "uint256"
        }
      ],
      "name": "getMilestone",
      "outputs": [
        {
          "components": [
            {
              "internalType": "uint256",
              "name": "id",
              "type": "uint256"
            },
            {
              "internalType": "string",
              "name": "description",
              "type": "string"
            },
            {
              "internalType": "uint256",
              "name": "amount",
              "type": "uint256"
            },
            {
              "internalType": "enum HeritTrust.MilestoneStatus",
              "name": "status",
              "type": "uint8"
            },
            {
              "internalType": "string",
              "name": "proofHash",
              "type": "string"
            },
            {
              "internalType": "uint256",
              "name": "verificationScore",
              "type": "uint256"
            }
          ],
          "internalType": "struct HeritTrust.Milestone",
          "name": "",
          "type": "tuple"
        }
      ],
      "stateMutability": "view",
      "type": "function"
    },
    {
      "inputs": [
        {
          "internalType": "uint256",
          "name": "_projectId",
          "type": "uint256"
        }
      ],
      "name": "getProject",
      "outputs": [
        {
          "components": [
            {
              "internalType": "uint256",
              "name": "id",
              "type": "uint256"
            },
            {
              "internalType": "string",
              "name": "name",
              "type": "string"
            },
            {
              "internalType": "string",
              "name": "description",
              "type": "string"
            },
            {
              "internalType": "address",
              "name": "contractor",
              "type": "address"
            },
            {
              "internalType": "uint256",
              "name": "totalBudget",
              "type": "uint256"
            },
            {
              "internalType": "uint256",
              "name": "fundsLocked",
              "type": "uint256"
            },
            {
              "internalType": "uint256",
              "name": "fundsReleased",
              "type": "uint256"
            },
            {
              "internalType": "enum HeritTrust.ProjectStatus",
              "name": "status",
              "type": "uint8"
            },
            {
              "internalType": "uint256",
              "name": "milestoneCount",
              "type": "uint256"
            }
          ],
          "internalType": "struct HeritTrust.Project",
          "name": "",
          "type": "tuple"
        }
      ],
      "stateMutability": "view",
      "type": "function"
    },
    {
      "inputs": [
        {
          "internalType": "bytes32",
          "name": "role",
          "type": "bytes32"
        }
      ],
      "name": "getRoleAdmin",
      "outputs": [
        {
          "internalType": "bytes32",
          "name": "",
          "type": "bytes32"
        }
      ],
      "stateMutability": "view",
      "type": "function"
    },
    {
      "inputs": [
        {
          "internalType": "bytes32",
          "name": "role",
          "type": "bytes32"
        },
        {
          "internalType": "address",
          "name": "account",
          "type": "address"
        }
      ],
      "name": "grantRole",
      "outputs": [],
      "stateMutability": "nonpayable",
      "type": "function"
    },
    {
      "inputs": [
        {
          "internalType": "bytes32",
          "name": "role",
          "type": "bytes32"
        },
        {
          "internalType": "address",
          "name": "account",
          "type": "address"
        }
      ],
      "name": "hasRole",
      "outputs": [
        {
          "internalType": "bool",
          "name": "",
          "type": "bool"
        }
      ],
      "stateMutability": "view",
      "type": "function"
    },
    {
      "inputs": [
        {
          "internalType": "uint256",
          "name": "",
          "type": "uint256"
        },
        {
          "internalType": "uint256",
          "name": "",
          "type": "uint256"
        }
      ],
      "name": "milestones",
      "outputs": [
        {
          "internalType": "uint256",
          "name": "id",
          "type": "uint256"
        },
        {
          "internalType": "string",
          "name": "description",
          "type": "string"
        },
        {
          "internalType": "uint256",
          "name": "amount",
          "type": "uint256"
        },
        {
          "internalType": "enum HeritTrust.MilestoneStatus",
          "name": "status",
          "type": "uint8"
        },
        {
          "internalType": "string",
          "name": "proofHash",
          "type": "string"
        },
        {
          "internalType": "uint256",
          "name": "verificationScore",
          "type": "uint256"
        }
      ],
      "stateMutability": "view",
      "type": "function"
    },
    {
      "inputs": [],
      "name": "projectCount",
      "outputs": [
        {
          "internalType": "uint256",
          "name": "",
          "type": "uint256"
        }
      ],
      "stateMutability": "view",
      "type": "function"
    },
    {
      "inputs": [
        {
          "internalType": "uint256",
          "name": "",
          "type": "uint256"
        }
      ],
      "name": "projects",
      "outputs": [
        {
          "internalType": "uint256",
          "name": "id",
          "type": "uint256"
        },
        {
          "internalType": "string",
          "name": "name",
          "type": "string"
        },
        {
          "internalType": "string",
          "name": "description",
          "type": "string"
        },
        {
          "internalType": "address",
          "name": "contractor",
          "type": "address"
        },
        {
          "internalType": "uint256",
          "name": "totalBudget",
          "type": "uint256"
        },
        {
          "internalType": "uint256",
          "name": "fundsLocked",
          "type": "uint256"
        },
        {
          "internalType": "uint256",
          "name": "fundsReleased",
          "type": "uint256"
        },
        {
          "internalType": "enum HeritTrust.ProjectStatus",
          "name": "status",
          "type": "uint8"
        },
        {
          "internalType": "uint256",
          "name": "milestoneCount",
          "type": "uint256"
        }
      ],
      "stateMutability": "view",
      "type": "function"
    },
    {
      "inputs": [
        {
          "internalType": "bytes32",
          "name": "role",
          "type": "bytes32"
        },
        {
          "internalType": "address",
          "name": "callerConfirmation",
          "type": "address"
        }
      ],
      "name": "renounceRole",
      "outputs": [],
      "stateMutability": "nonpayable",
      "type": "function"
    },
    {
      "inputs": [
        {
          "internalType": "bytes32",
          "name": "role",
          "type": "bytes32"
        },
        {
          "internalType": "address",
          "name": "account",
          "type": "address"
        }
      ],
      "name": "revokeRole",
      "outputs": [],
      "stateMutability": "nonpayable",
      "type": "function"
    },
    {
      "inputs": [
        {
          "internalType": "uint256",
          "name": "_projectId",
          "type": "uint256"
        },
        {
          "internalType": "uint256",
          "name": "_milestoneId",
          "type": "uint256"
        },
        {
          "internalType": "string",
          "name": "_proofHash",
          "type": "string"
        }
      ],
      "name": "submitMilestoneProof",
      "outputs": [],
      "stateMutability": "nonpayable",
      "type": "function"
    },
    {
      "inputs": [
        {
          "internalType": "bytes4",
          "name": "interfaceId",
          "type": "bytes4"
        }
      ],
      "name": "supportsInterface",
      "outputs": [
        {
          "internalType": "bool",
          "name": "",
          "type": "bool"
        }
      ],
      "stateMutability": "view",
      "type": "function"
    },
    {
      "inputs": [
        {
          "internalType": "uint256",
          "name": "_projectId",
          "type": "uint256"
        },
        {
          "internalType": "uint256",
          "name": "_milestoneId",
          "type": "uint256"
        },
        {
          "internalType": "uint256",
          "name": "_score",
          "type": "uint256"
        }
      ],
      "name": "verifyMilestone",
      "outputs": [],
      "stateMutability": "nonpayable",
      "type": "function"
    }
  ],
  "bytecode": "0x608060405234801561001057600080fd5b506001808190555061002b6000801b3361003160201b60201c565b506101a0565b6000610043838361012e60201b60201c565b61012357600160008085815260200190815260200160002060000160008473ffffffffffffffffffffffffffffffffffffffff1673ffffffffffffffffffffffffffffffffffffffff16815260200190815260200160002060006101000a81548160ff0219169083151502179055506100c061019860201b60201c565b73ffffffffffffffffffffffffffffffffffffffff168273ffffffffffffffffffffffffffffffffffffffff16847f2f8788117e7eff1d82e926ec794901d17c78024a50270940304540a733656f0d60405160405180910390a460019050610128565b600090505b92915050565b600080600084815260200190815260200160002060000160008373ffffffffffffffffffffffffffffffffffffffff1673ffffffffffffffffffffffffffffffffffffffff16815260200190815260200160002060009054906101000a900460ff16905092915050565b600033905090565b61329f806101af6000396000f3fe6080604052600436106101145760003560e01c80638ed9895c116100a0578063bac3833911610064578063bac38339146103e0578063d547741f146103fc578063e7705db614610425578063f0f3f2c814610450578063f88e32041461048d57610114565b80638ed9895c146102e957806391d148541461032657806398df912e146103635780639f791e5f1461038c578063a217fddf146103b557610114565b8063248a9ca3116100e7578063248a9ca3146102065780632f2ff15d1461024357806336568abe1461026c57806336fbad261461029557806351c6b45e146102c057610114565b806301ffc9a71461011957806308c6f4ab14610156578063107046bd1461017f5780631c376c63146101c4575b600080fd5b34801561012557600080fd5b50610140600480360381019061013b9190611f30565b6104b8565b60405161014d9190611f78565b60405180910390f35b34801561016257600080fd5b5061017d60048036038101906101789190611fc9565b610532565b005b34801561018b57600080fd5b506101a660048036038101906101a1919061201c565b6106c4565b6040516101bb999897969594939291906121a0565b60405180910390f35b3480156101d057600080fd5b506101eb60048036038101906101e6919061223b565b61084f565b6040516101fd969594939291906122c3565b60405180910390f35b34801561021257600080fd5b5061022d60048036038101906102289190612368565b6109b5565b60405161023a91906123a4565b60405180910390f35b34801561024f57600080fd5b5061026a600480360381019061026591906123eb565b6109d4565b005b34801561027857600080fd5b50610293600480360381019061028e91906123eb565b6109f6565b005b3480156102a157600080fd5b506102aa610a71565b6040516102b7919061242b565b60405180910390f35b3480156102cc57600080fd5b506102e760048036038101906102e2919061223b565b610a77565b005b3480156102f557600080fd5b50610310600480360381019061030b919061223b565b610dd3565b60405161031d919061253e565b60405180910390f35b34801561033257600080fd5b5061034d600480360381019061034891906123eb565b610f8f565b60405161035a9190611f78565b60405180910390f35b34801561036f57600080fd5b5061038a60048036038101906103859190612695565b610ff9565b005b34801561039857600080fd5b506103b360048036038101906103ae9190612704565b611347565b005b3480156103c157600080fd5b506103ca611579565b6040516103d791906123a4565b60405180910390f35b6103fa60048036038101906103f59190612773565b611580565b005b34801561040857600080fd5b50610423600480360381019061041e91906123eb565b611880565b005b34801561043157600080fd5b5061043a6118a2565b60405161044791906123a4565b60405180910390f35b34801561045c57600080fd5b506104776004803603810190610472919061201c565b6118c6565b60405161048491906128fc565b60405180910390f35b34801561049957600080fd5b506104a2611adb565b6040516104af91906123a4565b60405180910390f35b60007f7965db0b000000000000000000000000000000000000000000000000000000007bffffffffffffffffffffffffffffffffffffffffffffffffffffffff1916827bffffffffffffffffffffffffffffffffffffffffffffffffffffffff1916148061052b575061052a82611aff565b5b9050919050565b61055c7f0ce23c3e399818cfee81a7ab0880f714e53d7672b08df0fa62f2843416e1ea0933610f8f565b80610570575061056f6000801b33610f8f565b5b6105af576040517f08c379a00000000000000000000000000000000000000000000000000000000081526004016105a69061296a565b60405180910390fd5b60006004600085815260200190815260200160002060008481526020019081526020016000209050600160048111156105eb576105ea612129565b5b8160030160009054906101000a900460ff16600481111561060f5761060e612129565b5b1461064f576040517f08c379a0000000000000000000000000000000000000000000000000000000008152600401610646906129d6565b60405180910390fd5b81816005018190555060028160030160006101000a81548160ff021916908360048111156106805761067f612129565b5b021790555082847f95746eb2a2ce606b86dd03c51ffd927b7a5d5511c007d15adc040ae171dfad93846040516106b6919061242b565b60405180910390a350505050565b60036020528060005260406000206000915090508060000154908060010180546106ed90612a25565b80601f016020809104026020016040519081016040528092919081815260200182805461071990612a25565b80156107665780601f1061073b57610100808354040283529160200191610766565b820191906000526020600020905b81548152906001019060200180831161074957829003601f168201915b50505050509080600201805461077b90612a25565b80601f01602080910402602001604051908101604052809291908181526020018280546107a790612a25565b80156107f45780601f106107c9576101008083540402835291602001916107f4565b820191906000526020600020905b8154815290600101906020018083116107d757829003601f168201915b5050505050908060030160009054906101000a900473ffffffffffffffffffffffffffffffffffffffff16908060040154908060050154908060060154908060070160009054906101000a900460ff16908060080154905089565b60046020528160005260406000206020528060005260406000206000915091505080600001549080600101805461088590612a25565b80601f01602080910402602001604051908101604052809291908181526020018280546108b190612a25565b80156108fe5780601f106108d3576101008083540402835291602001916108fe565b820191906000526020600020905b8154815290600101906020018083116108e157829003601f168201915b5050505050908060020154908060030160009054906101000a900460ff169080600401805461092c90612a25565b80601f016020809104026020016040519081016040528092919081815260200182805461095890612a25565b80156109a55780601f1061097a576101008083540402835291602001916109a5565b820191906000526020600020905b81548152906001019060200180831161098857829003601f168201915b5050505050908060050154905086565b6000806000838152602001908152602001600020600101549050919050565b6109dd826109b5565b6109e681611b69565b6109f08383611b7d565b50505050565b6109fe611c6e565b73ffffffffffffffffffffffffffffffffffffffff168173ffffffffffffffffffffffffffffffffffffffff1614610a62576040517f6697b23200000000000000000000000000000000000000000000000000000000815260040160405180910390fd5b610a6c8282611c76565b505050565b60025481565b6000801b610a8481611b69565b610a8c611d68565b6000600460008581526020019081526020016000206000848152602001908152602001600020905060026004811115610ac857610ac7612129565b5b8160030160009054906101000a900460ff166004811115610aec57610aeb612129565b5b14610b2c576040517f08c379a0000000000000000000000000000000000000000000000000000000008152600401610b2390612aa2565b60405180910390fd5b60006003600086815260200190815260200160002090508160020154471015610b8a576040517f08c379a0000000000000000000000000000000000000000000000000000000008152600401610b8190612b0e565b60405180910390fd5b60038260030160006101000a81548160ff02191690836004811115610bb257610bb1612129565b5b02179055508160020154816006016000828254610bcf9190612b5d565b925050819055508160020154816005016000828254610bee9190612b91565b9250508190555060008160030160009054906101000a900473ffffffffffffffffffffffffffffffffffffffff1673ffffffffffffffffffffffffffffffffffffffff168360020154604051610c4390612bf6565b60006040518083038185875af1925050503d8060008114610c80576040519150601f19603f3d011682016040523d82523d6000602084013e610c85565b606091505b5050905080610cc9576040517f08c379a0000000000000000000000000000000000000000000000000000000008152600401610cc090612c57565b60405180910390fd5b8160040154826006015403610d065760028260070160006101000a81548160ff02191690836003811115610d0057610cff612129565b5b02179055505b3373ffffffffffffffffffffffffffffffffffffffff1685877f9ffbb52f2a1362273cd74689a516ca4f52c4282dc13e2e68b7e0646a9a7af7a360405160405180910390a48160030160009054906101000a900473ffffffffffffffffffffffffffffffffffffffff1673ffffffffffffffffffffffffffffffffffffffff1685877f7c23647db3cb03f6f0d92ad3dcde207e9a1640d0b15a34689bd0ea8c8400f8d58660020154604051610dbb919061242b565b60405180910390a4505050610dce611dae565b505050565b610ddb611e08565b6004600084815260200190815260200160002060008381526020019081526020016000206040518060c001604052908160008201548152602001600182018054610e2490612a25565b80601f0160208091040260200160405190810160405280929190818152602001828054610e5090612a25565b8015610e9d5780601f10610e7257610100808354040283529160200191610e9d565b820191906000526020600020905b815481529060010190602001808311610e8057829003601f168201915b50505050508152602001600282015481526020016003820160009054906101000a900460ff166004811115610ed557610ed4612129565b5b6004811115610ee757610ee6612129565b5b8152602001600482018054610efb90612a25565b80601f0160208091040260200160405190810160405280929190818152602001828054610f2790612a25565b8015610f745780601f10610f4957610100808354040283529160200191610f74565b820191906000526020600020905b815481529060010190602001808311610f5757829003601f168201915b50505050508152602001600582015481525050905092915050565b600080600084815260200190815260200160002060000160008373ffffffffffffffffffffffffffffffffffffffff1673ffffffffffffffffffffffffffffffffffffffff16815260200190815260200160002060009054906101000a900460ff16905092915050565b6000801b61100681611b69565b60006003600086815260200190815260200160002090506000600381111561103157611030612129565b5b8160070160009054906101000a900460ff16600381111561105557611054612129565b5b14806110965750600160038111156110705761106f612129565b5b8160070160009054906101000a900460ff16600381111561109457611093612129565b5b145b6110d5576040517f08c379a00000000000000000000000000000000000000000000000000000000081526004016110cc90612cc3565b60405180910390fd5b600080600190505b8260080154811161113057600460008881526020019081526020016000206000828152602001908152602001600020600201548261111b9190612b5d565b9150808061112890612ce3565b9150506110dd565b50816004015484826111429190612b5d565b1115611183576040517f08c379a000000000000000000000000000000000000000000000000000000000815260040161117a90612d77565b60405180910390fd5b81600801600081548092919061119890612ce3565b91905055506040518060c0016040528083600801548152602001868152602001858152602001600060048111156111d2576111d1612129565b5b81526020016040518060200160405280600081525081526020016000815250600460008881526020019081526020016000206000846008015481526020019081526020016000206000820151816000015560208201518160010190816112389190612f43565b506040820151816002015560608201518160030160006101000a81548160ff0219169083600481111561126e5761126d612129565b5b021790555060808201518160040190816112889190612f43565b5060a08201518160050155905050600060038111156112aa576112a9612129565b5b8260070160009054906101000a900460ff1660038111156112ce576112cd612129565b5b036113015760018260070160006101000a81548160ff021916908360038111156112fb576112fa612129565b5b02179055505b857f181b2c47cd33dc9269cee529bce3d69b2a761b21d362142ea7fb50f8efce3f0c836008015486604051611337929190613015565b60405180910390a2505050505050565b7fef28dcbf06eb73add8f77665c46a6263e719f928f9c34710ec1097573ba6e20c61137181611b69565b60006003600086815260200190815260200160002090503373ffffffffffffffffffffffffffffffffffffffff168160030160009054906101000a900473ffffffffffffffffffffffffffffffffffffffff1673ffffffffffffffffffffffffffffffffffffffff161461141a576040517f08c379a00000000000000000000000000000000000000000000000000000000081526004016114119061308a565b60405180910390fd5b600060046000878152602001908152602001600020600086815260200190815260200160002090506000600481111561145657611455612129565b5b8160030160009054906101000a900460ff16600481111561147a57611479612129565b5b14806114ba575060048081111561149457611493612129565b5b8160030160009054906101000a900460ff1660048111156114b8576114b7612129565b5b145b6114f9576040517f08c379a00000000000000000000000000000000000000000000000000000000081526004016114f0906130f6565b60405180910390fd5b8381600401908161150a9190612f43565b5060018160030160006101000a81548160ff0219169083600481111561153357611532612129565b5b021790555084867f556e3b296d5e8c8bab27684b52ae96905507befd2d188ce6f4453a6717dd9c00866040516115699190613116565b60405180910390a3505050505050565b6000801b81565b6000801b61158d81611b69565b611595611d68565b8134146115d7576040517f08c379a00000000000000000000000000000000000000000000000000000000081526004016115ce90613184565b60405180910390fd5b600073ffffffffffffffffffffffffffffffffffffffff168373ffffffffffffffffffffffffffffffffffffffff1603611646576040517f08c379a000000000000000000000000000000000000000000000000000000000815260040161163d906131f0565b60405180910390fd5b6002600081548092919061165990612ce3565b919050555060405180610120016040528060025481526020018681526020018581526020018473ffffffffffffffffffffffffffffffffffffffff16815260200183815260200134815260200160008152602001600060038111156116c1576116c0612129565b5b815260200160008152506003600060025481526020019081526020016000206000820151816000015560208201518160010190816116ff9190612f43565b5060408201518160020190816117159190612f43565b5060608201518160030160006101000a81548173ffffffffffffffffffffffffffffffffffffffff021916908373ffffffffffffffffffffffffffffffffffffffff1602179055506080820151816004015560a0820151816005015560c0820151816006015560e08201518160070160006101000a81548160ff021916908360038111156117a6576117a5612129565b5b021790555061010082015181600801559050506117e37fef28dcbf06eb73add8f77665c46a6263e719f928f9c34710ec1097573ba6e20c84611b7d565b508273ffffffffffffffffffffffffffffffffffffffff166002547fa026ee65bff24e0219543a4cec2746ef952b145e2658ac5db36953d7044712a9878560405161182f929190613210565b60405180910390a36002547fbedc4e5ac6876307c4b4b5761039aa2ebce89052490a34e15cc655d9142ba0dc34604051611869919061242b565b60405180910390a2611879611dae565b5050505050565b611889826109b5565b61189281611b69565b61189c8383611c76565b50505050565b7f0ce23c3e399818cfee81a7ab0880f714e53d7672b08df0fa62f2843416e1ea0981565b6118ce611e50565b60036000838152602001908152602001600020604051806101200160405290816000820154815260200160018201805461190790612a25565b80601f016020809104026020016040519081016040528092919081815260200182805461193390612a25565b80156119805780601f1061195557610100808354040283529160200191611980565b820191906000526020600020905b81548152906001019060200180831161196357829003601f168201915b5050505050815260200160028201805461199990612a25565b80601f01602080910402602001604051908101604052809291908181526020018280546119c590612a25565b8015611a125780601f106119e757610100808354040283529160200191611a12565b820191906000526020600020905b8154815290600101906020018083116119f557829003601f168201915b505050505081526020016003820160009054906101000a900473ffffffffffffffffffffffffffffffffffffffff1673ffffffffffffffffffffffffffffffffffffffff1673ffffffffffffffffffffffffffffffffffffffff1681526020016004820154815260200160058201548152602001600682015481526020016007820160009054906101000a900460ff166003811115611ab457611ab3612129565b5b6003811115611ac657611ac5612129565b5b81526020016008820154815250509050919050565b7fef28dcbf06eb73add8f77665c46a6263e719f928f9c34710ec1097573ba6e20c81565b60007f01ffc9a7000000000000000000000000000000000000000000000000000000007bffffffffffffffffffffffffffffffffffffffffffffffffffffffff1916827bffffffffffffffffffffffffffffffffffffffffffffffffffffffff1916149050919050565b611b7a81611b75611c6e565b611db7565b50565b6000611b898383610f8f565b611c6357600160008085815260200190815260200160002060000160008473ffffffffffffffffffffffffffffffffffffffff1673ffffffffffffffffffffffffffffffffffffffff16815260200190815260200160002060006101000a81548160ff021916908315150217905550611c00611c6e565b73ffffffffffffffffffffffffffffffffffffffff168273ffffffffffffffffffffffffffffffffffffffff16847f2f8788117e7eff1d82e926ec794901d17c78024a50270940304540a733656f0d60405160405180910390a460019050611c68565b600090505b92915050565b600033905090565b6000611c828383610f8f565b15611d5d57600080600085815260200190815260200160002060000160008473ffffffffffffffffffffffffffffffffffffffff1673ffffffffffffffffffffffffffffffffffffffff16815260200190815260200160002060006101000a81548160ff021916908315150217905550611cfa611c6e565b73ffffffffffffffffffffffffffffffffffffffff168273ffffffffffffffffffffffffffffffffffffffff16847ff6391f5c32d9c69d2a47ea670b442974b53935d1edc7fd64eb21e047a839171b60405160405180910390a460019050611d62565b600090505b92915050565b600260015403611da4576040517f3ee5aeb500000000000000000000000000000000000000000000000000000000815260040160405180910390fd5b6002600181905550565b60018081905550565b611dc18282610f8f565b611e045780826040517fe2517d3f000000000000000000000000000000000000000000000000000000008152600401611dfb929190613240565b60405180910390fd5b5050565b6040518060c0016040528060008152602001606081526020016000815260200160006004811115611e3c57611e3b612129565b5b815260200160608152602001600081525090565b604051806101200160405280600081526020016060815260200160608152602001600073ffffffffffffffffffffffffffffffffffffffff16815260200160008152602001600081526020016000815260200160006003811115611eb757611eb6612129565b5b8152602001600081525090565b6000604051905090565b600080fd5b600080fd5b60007fffffffff0000000000000000000000000000000000000000000000000000000082169050919050565b611f0d81611ed8565b8114611f1857600080fd5b50565b600081359050611f2a81611f04565b92915050565b600060208284031215611f4657611f45611ece565b5b6000611f5484828501611f1b565b91505092915050565b60008115159050919050565b611f7281611f5d565b82525050565b6000602082019050611f8d6000830184611f69565b92915050565b6000819050919050565b611fa681611f93565b8114611fb157600080fd5b50565b600081359050611fc381611f9d565b92915050565b600080600060608486031215611fe257611fe1611ece565b5b6000611ff086828701611fb4565b935050602061200186828701611fb4565b925050604061201286828701611fb4565b9150509250925092565b60006020828403121561203257612031611ece565b5b600061204084828501611fb4565b91505092915050565b61205281611f93565b82525050565b600081519050919050565b600082825260208201905092915050565b60005b83811015612092578082015181840152602081019050612077565b60008484015250505050565b6000601f19601f8301169050919050565b60006120ba82612058565b6120c48185612063565b93506120d4818560208601612074565b6120dd8161209e565b840191505092915050565b600073ffffffffffffffffffffffffffffffffffffffff82169050919050565b6000612113826120e8565b9050919050565b61212381612108565b82525050565b7f4e487b7100000000000000000000000000000000000000000000000000000000600052602160045260246000fd5b6004811061216957612168612129565b5b50565b600081905061217a82612158565b919050565b600061218a8261216c565b9050919050565b61219a8161217f565b82525050565b6000610120820190506121b6600083018c612049565b81810360208301526121c8818b6120af565b905081810360408301526121dc818a6120af565b90506121eb606083018961211a565b6121f86080830188612049565b61220560a0830187612049565b61221260c0830186612049565b61221f60e0830185612191565b61222d610100830184612049565b9a9950505050505050505050565b6000806040838503121561225257612251611ece565b5b600061226085828601611fb4565b925050602061227185828601611fb4565b9150509250929050565b6005811061228c5761228b612129565b5b50565b600081905061229d8261227b565b919050565b60006122ad8261228f565b9050919050565b6122bd816122a2565b82525050565b600060c0820190506122d86000830189612049565b81810360208301526122ea81886120af565b90506122f96040830187612049565b61230660608301866122b4565b818103608083015261231881856120af565b905061232760a0830184612049565b979650505050505050565b6000819050919050565b61234581612332565b811461235057600080fd5b50565b6000813590506123628161233c565b92915050565b60006020828403121561237e5761237d611ece565b5b600061238c84828501612353565b91505092915050565b61239e81612332565b82525050565b60006020820190506123b96000830184612395565b92915050565b6123c881612108565b81146123d357600080fd5b50565b6000813590506123e5816123bf565b92915050565b6000806040838503121561240257612401611ece565b5b600061241085828601612353565b9250506020612421858286016123d6565b9150509250929050565b60006020820190506124406000830184612049565b92915050565b61244f81611f93565b82525050565b600082825260208201905092915050565b600061247182612058565b61247b8185612455565b935061248b818560208601612074565b6124948161209e565b840191505092915050565b6124a8816122a2565b82525050565b600060c0830160008301516124c66000860182612446565b50602083015184820360208601526124de8282612466565b91505060408301516124f36040860182612446565b506060830151612506606086018261249f565b506080830151848203608086015261251e8282612466565b91505060a083015161253360a0860182612446565b508091505092915050565b6000602082019050818103600083015261255881846124ae565b905092915050565b600080fd5b600080fd5b7f4e487b7100000000000000000000000000000000000000000000000000000000600052604160045260246000fd5b6125a28261209e565b810181811067ffffffffffffffff821117156125c1576125c061256a565b5b80604052505050565b60006125d4611ec4565b90506125e08282612599565b919050565b600067ffffffffffffffff821115612600576125ff61256a565b5b6126098261209e565b9050602081019050919050565b82818337600083830152505050565b6000612638612633846125e5565b6125ca565b90508281526020810184848401111561265457612653612565565b5b61265f848285612616565b509392505050565b600082601f83011261267c5761267b612560565b5b813561268c848260208601612625565b91505092915050565b6000806000606084860312156126ae576126ad611ece565b5b60006126bc86828701611fb4565b935050602084013567ffffffffffffffff8111156126dd576126dc611ed3565b5b6126e986828701612667565b92505060406126fa86828701611fb4565b9150509250925092565b60008060006060848603121561271d5761271c611ece565b5b600061272b86828701611fb4565b935050602061273c86828701611fb4565b925050604084013567ffffffffffffffff81111561275d5761275c611ed3565b5b61276986828701612667565b9150509250925092565b6000806000806080858703121561278d5761278c611ece565b5b600085013567ffffffffffffffff8111156127ab576127aa611ed3565b5b6127b787828801612667565b945050602085013567ffffffffffffffff8111156127d8576127d7611ed3565b5b6127e487828801612667565b93505060406127f5878288016123d6565b925050606061280687828801611fb4565b91505092959194509250565b61281b81612108565b82525050565b61282a8161217f565b82525050565b6000610120830160008301516128496000860182612446565b50602083015184820360208601526128618282612466565b9150506040830151848203604086015261287b8282612466565b91505060608301516128906060860182612812565b5060808301516128a36080860182612446565b5060a08301516128b660a0860182612446565b5060c08301516128c960c0860182612446565b5060e08301516128dc60e0860182612821565b506101008301516128f1610100860182612446565b508091505092915050565b600060208201905081810360008301526129168184612830565b905092915050565b7f4e6f7420617574686f72697a656420746f207665726966790000000000000000600082015250565b6000612954601883612063565b915061295f8261291e565b602082019050919050565b6000602082019050818103600083015261298381612947565b9050919050565b7f4d696c6573746f6e65206e6f74207375626d6974746564000000000000000000600082015250565b60006129c0601783612063565b91506129cb8261298a565b602082019050919050565b600060208201905081810360008301526129ef816129b3565b9050919050565b7f4e487b7100000000000000000000000000000000000000000000000000000000600052602260045260246000fd5b60006002820490506001821680612a3d57607f821691505b602082108103612a5057612a4f6129f6565b5b50919050565b7f4d696c6573746f6e65206e6f7420766572696669656400000000000000000000600082015250565b6000612a8c601683612063565b9150612a9782612a56565b602082019050919050565b60006020820190508181036000830152612abb81612a7f565b9050919050565b7f496e73756666696369656e7420636f6e74726163742062616c616e6365000000600082015250565b6000612af8601d83612063565b9150612b0382612ac2565b602082019050919050565b60006020820190508181036000830152612b2781612aeb565b9050919050565b7f4e487b7100000000000000000000000000000000000000000000000000000000600052601160045260246000fd5b6000612b6882611f93565b9150612b7383611f93565b9250828201905080821115612b8b57612b8a612b2e565b5b92915050565b6000612b9c82611f93565b9150612ba783611f93565b9250828203905081811115612bbf57612bbe612b2e565b5b92915050565b600081905092915050565b50565b6000612be0600083612bc5565b9150612beb82612bd0565b600082019050919050565b6000612c0182612bd3565b9150819050919050565b7f5472616e73666572206661696c65640000000000000000000000000000000000600082015250565b6000612c41600f83612063565b9150612c4c82612c0b565b602082019050919050565b60006020820190508181036000830152612c7081612c34565b9050919050565b7f50726f6a656374206e6f74206163746976650000000000000000000000000000600082015250565b6000612cad601283612063565b9150612cb882612c77565b602082019050919050565b60006020820190508181036000830152612cdc81612ca0565b9050919050565b6000612cee82611f93565b91507fffffffffffffffffffffffffffffffffffffffffffffffffffffffffffffffff8203612d2057612d1f612b2e565b5b600182019050919050565b7f4578636565647320746f74616c20627564676574000000000000000000000000600082015250565b6000612d61601483612063565b9150612d6c82612d2b565b602082019050919050565b60006020820190508181036000830152612d9081612d54565b9050919050565b60008190508160005260206000209050919050565b60006020601f8301049050919050565b600082821b905092915050565b600060088302612df97fffffffffffffffffffffffffffffffffffffffffffffffffffffffffffffffff82612dbc565b612e038683612dbc565b95508019841693508086168417925050509392505050565b6000819050919050565b6000612e40612e3b612e3684611f93565b612e1b565b611f93565b9050919050565b6000819050919050565b612e5a83612e25565b612e6e612e6682612e47565b848454612dc9565b825550505050565b600090565b612e83612e76565b612e8e818484612e51565b505050565b5b81811015612eb257612ea7600082612e7b565b600181019050612e94565b5050565b601f821115612ef757612ec881612d97565b612ed184612dac565b81016020851015612ee0578190505b612ef4612eec85612dac565b830182612e93565b50505b505050565b600082821c905092915050565b6000612f1a60001984600802612efc565b1980831691505092915050565b6000612f338383612f09565b9150826002028217905092915050565b612f4c82612058565b67ffffffffffffffff811115612f6557612f6461256a565b5b612f6f8254612a25565b612f7a828285612eb6565b600060209050601f831160018114612fad5760008415612f9b578287015190505b612fa58582612f27565b86555061300d565b601f198416612fbb86612d97565b60005b82811015612fe357848901518255600182019150602085019450602081019050612fbe565b868310156130005784890151612ffc601f891682612f09565b8355505b6001600288020188555050505b505050505050565b600060408201905061302a6000830185612049565b6130376020830184612049565b9392505050565b7f4e6f74207468652070726f6a65637420636f6e74726163746f72000000000000600082015250565b6000613074601a83612063565b915061307f8261303e565b602082019050919050565b600060208201905081810360008301526130a381613067565b9050919050565b7f496e76616c696420737461747573000000000000000000000000000000000000600082015250565b60006130e0600e83612063565b91506130eb826130aa565b602082019050919050565b6000602082019050818103600083015261310f816130d3565b9050919050565b6000602082019050818103600083015261313081846120af565b905092915050565b7f53656e7420455448206d757374206d6174636820627564676574000000000000600082015250565b600061316e601a83612063565b915061317982613138565b602082019050919050565b6000602082019050818103600083015261319d81613161565b9050919050565b7f496e76616c696420636f6e74726163746f722061646472657373000000000000600082015250565b60006131da601a83612063565b91506131e5826131a4565b602082019050919050565b60006020820190508181036000830152613209816131cd565b9050919050565b6000604082019050818103600083015261322a81856120af565b90506132396020830184612049565b9392505050565b6000604082019050613255600083018561211a565b6132626020830184612395565b939250505056fea2646970667358221220dd659f1cd854f48123800025f9b8bb394540e6702821fc92c21ea2938e0928af64736f6c634300081c0033",
  "linkReferences": {},
  "deployedLinkReferences": {}
}